:10000000758920758DFD759850D28E743811DB116D
:10001000CB740C11DB11CB11D47590FFC2902094DE
:100020000B743111B511D490030011C120950B74DC
:100030003211B511D490030411C120960B74331101
:10004000B511D490030811C1209704744111B5D2A1
:1000500090C291209404743411B520950474351124
:10006000B5209604743611B5209704744211B5D2A8
:1000700091C292209404743711B5209504743811FC
:10008000B5209604743911B5209704744311B5D284
:1000900092C293209404742A11B5209504743011EF
:1000A000B5209604742311B5209707744411B50246
:1000B0000019020019F5993099FDC29911CB11CBA5
:1000C00022E49311E8A3600280F72278FF79FFD938
:1000D000FED8FA22740111DB11CB22F5A0C2B3C203
:1000E000B4D2B511CBC2B522F5A0D2B3C2B4D2B549
:0500F00011CBC2B52296
:0F0300004C45440046414E0042555A5A45520062
:00000001FF
