:10000000758920758DFD759850D28E7438313631D2
:1000100026740C31363126312F7590FFC290209412
:100020000B74313110312F900305311C20950B7466
:10003000323110312F900309311C20960B7433316B
:1000400010312F90030D311C20970B74413110316A
:100050002F90032C311CD290C29120940B74343118
:1000600010312F900314311C20950B743531103151
:100070002F900318311C20960B74363110312F90BD
:10008000031C311C20970B74423110312F90033127
:10009000311CD291C29220940B74373110312F90C1
:1000A0000320311C20950B74383110312F9003241C
:1000B000311C20960B74393110312F900328311CDC
:1000C00020970B74433110312F900336311CD2929C
:1000D000C29320940B742A3110312F900340311CAD
:1000E00020950B74303110312F900300311C209675
:1000F0000B74233110312F900345311C20970E745F
:10010000443110312F90033B311C020019020019B9
:10011000F5993099FDC2993126312622E493314375
:10012000A3600280F72278FF79FFD9FED8FA227403
:10013000013136312622F5A0C2B3C2B4D2B5312680
:10014000C2B522F5A0D2B3C2B4D2B53126C2B5220F
:100300005A45524F004C45440046414E0042555A12
:100310005A4552004150340041503500415036009A
:10032000415037004150380041503900534150414D
:100330000053415042005341504300534150440048
:0A0340005341505300534150480050
:00000001FF
