:10000000758920758DFD759850D28E7438313B31CD
:100010002B740C313B312B3134900300312175901E
:10002000FFC29020940B743131153134900310319C
:100030002120950B74323115313490031431212075
:10004000960B743331153134900318312120970BFE
:100050007441311531349003373121D290C291204F
:10006000940B74343115313490031F312120950BDA
:10007000743531153134900323312120960B7436B9
:1000800031153134900327312120970B74423115FB
:10009000313490033C3121D291C29220940B7437B9
:1000A0003115313490032B312120950B74383115E3
:1000B000313490032F312120960B743931153134AE
:1000C000900333312120970B744331153134900361
:1000D000413121D292C29320940B742A31153134CC
:1000E00090034B312120950B74303115313490033E
:1000F00008312120960B742331153134900350318F
:100100002120970E74443115313490034631210279
:10011000001E02001EF5993099FDC299312B312B3A
:1001200022E4933148A3600280F72278FF79FFD957
:10013000FED8FA227401313B312B22F5A0C2B3C2A2
:10014000B4D2B5312BC2B522F5A0D2B3C2B4D2B568
:05015000312BC2B522B5
:1003000057454C434F4D4500414C4C204F4646000D
:100310004C45440046414E0042555A5A4552004110
:1003200050340041503500415036004150370041B3
:100330005038004150390053415041005341504220
:100340000053415043005341504400534150530027
:0503500053415048007C
:00000001FF
